:10000000008000204D0C00008D0C00008F0C0000C3
:1000100000000000000000000000000000000000E0
:10002000000000000000000000000000910C000033
:100030000000000000000000930C0000950C000080
:10004000970C0000970C0000A50A0000970C000018
:10005000970C000000000000970C0000970C0000B7
:10006000970C0000970C0000970C0000970C000004
:10007000970C0000970C0000970C0000970C0000F4
:10008000970C0000970C0000970C0000970C0000E4
:10009000970C0000970C0000970C0000970C0000D4
:1000A000970C0000970C000000000000000000000A
:1000B0000000000000000000000000000000000040
:1000C000054B0648033310B51B1A062B03D9044B06
:1000D000002B00D0984710BD700000207000002059
:1000E000000000000648074910B5091A8910CB0F17
:1000F0005918491003D0044B002B00D0984710BD6D
:1001000070000020700000200000000010B5074CB7
:100110002378002B09D1FFF7D3FF054B002B02D02A
:10012000044800E000BF0123237010BD70000020D0
:10013000000000003C1D0000094B10B5002B03D04F
:100140000849094800E000BF08480368002B02D1B5
:10015000FFF7C8FF10BD064B002BF9D09847F7E713
:1001600000000000740000203C1D00006C00002016
:1001700000000000164B002B00D1144B9D4640227E
:1001800092029A1A924600218B460F461348144A4F
:10019000121A00F067F80F4B002B00D098470E4B57
:1001A000002B00D098470020002104000D000D48CE
:1001B000002802D00C4800E000BF00F02DF820001D
:1001C000290000F0D7F800F011F8C0460000080040
:1001D00000800020000000000000000070000020EF
:1001E000E80100200000000000000000084B10B5EE
:1001F0000400002B02D0002100E000BF054B18686E
:10020000836A002B00D09847200000F033F8C046E6
:1002100000000000401C00000E4B70B500251E00C1
:100220000D4CE41AA410A54204D0AB00F358984733
:100230000135F8E701F0F6FC084B00251E00084CDC
:10024000E41AA410A54204D0AB00F3589847013536
:10025000F8E770BD64000020640000206400002006
:100260006800002003008218934202D01970013305
:10027000FAE77047FEE7C0462E4B1B78012B00D0F3
:1002800070472D4B1B681B07FAD1F0222B4B1B68C4
:10029000134027D12A4B1B6813422BD0264B1B68D7
:1002A0001B07EDD1F022254B1B681340402B2DD0AE
:1002B000224B1A68F0231340A02B01D0D02BDFD1A2
:1002C0001F4B1A68F0231A42DAD11E4A1368012B19
:1002D00004D01D4B13601368012BFCD1C0221B4BB3
:1002E0001A60CDE7102B01D0302BDBD1144B1B68EB
:1002F0001342D7D1164A174B1A608022164B1202AE
:100300001A600C4B1B78012BC8D0B9E70C4B1B684B
:100310001342CDD1C12380220121DB00D205D1506F
:10032000044B1B78012BABD1034B1B681B07BFD0C1
:10033000A6E7C046E00F00F0E40F00F0E80F00F081
:10034000EC0F00F000EC06407593000014EC064042
:10035000DFFF07C004050040186C004010B50378AB
:10036000022B02D0012B00D010BD406800F062F8D3
:10037000FAE7C04630B5F020A02500230121032470
:1003800089B04004ED050133202B0BD002001A4147
:100390001142F8D01A00C132FF3292000133545199
:1003A000202BF3D1A023F021A122DB054904D200A8
:1003B00099500021184A01A899500200174B32CBDE
:1003C00032C2174B04AC049301236360154B164AE9
:1003D000A36080235B00E3602100FD3B00F000F997
:1003E000002815D1114800F057FC2025200000F00E
:1003F00049F90028FAD1207800F05EF90028FAD1F6
:100400002378AB43512BF1D1094800F045FCFEE7BE
:1004100000F010F8E6E7C0460C050000441C0000A0
:100420008C000020900000205D030000501C0000A4
:100430005C1C0000002300B585B001AA906000217B
:1004400003481380536000F005F805B000BDC046B6
:1004500001400000BFF34F8F034A044BDA60BFF343
:100460004F8FC046FDE7C0460400FA0500ED00E0EE
:1004700010B500290DD00923002A01D1180010BDA4
:10048000541E2240FAD1826001608480C260002341
:10049000F4E70E23F2E7C046030010B59C8880689D
:1004A000DA68121A0420944200D210BDDA680020E3
:1004B00014401A681155DA680132DA60F5E7C0466F
:1004C00010B58468C26803000520944200D110BDB5
:1004D00098689A8802401868825C00200A709A68BE
:1004E00001329A60F3E7C04670B516000C008D1813
:1004F000002A05DD2078013400F0DEF8AC42F9D1A5
:10050000300070BD10B50C00200000F0BBF80528CD
:10051000FAD0012010BDC04630B5047885B0012C5A
:1005200019D0022C34D0002C01D005B030BD274D9D
:10053000274C29002000FFF7C3FF002823D0A26822
:10054000E3689A42F1D1032302AA1370214B1000F1
:100550001B689847E9E743681F4D19782800FFF7A3
:100560009BFF002822D1AA68EB689B1A012B25D09B
:10057000A968AA88EB685B1A9A42D6D3012117486A
:1005800000F0ECF9D1E70121280000F085F9D6E769
:1005900002AB1C70C368012110480193039300F063
:1005A000DDF90C4B02A81B689847BEE702AB1C7034
:1005B000084B03901B6802A89847D9E702AB187054
:1005C000044B02A81B689847D2E7C0469001002060
:1005D0009C01002094010020AC0100209801002023
:1005E000F0B51E00214B050089B00C001A600720F1
:1005F000002906D08A881E480968FFF739FF0028BD
:1006000001D009B0F0BDA289A1681A48FFF730FFF8
:100610000028F6D16A46184B684692CB92C292CB1C
:1006200092C212CB12C2AB6806932B7906775A1E80
:10063000934103756B790E22591E8B415B421A4020
:100640004275EB780293AB7803932B7801936B7828
:1006500000930A4900F08EF80028D2D100F00CFA7D
:100660000121074800F07AF9CBE7C0469401002049
:10067000AC0100209C010020681C0000190500004E
:100680009801002070B50A4C0500A168A288E368B3
:100690005B1A9A4204D029002000FFF711FF70BDB9
:1006A0000121044800F05AF90028F4D00520F6E7AB
:1006B000AC0100209801002070B50D4D010028000C
:1006C000FFF7EAFE041E01D0200070BD00F03EF9E5
:1006D0000028F9D1074E28003100FFF7F1FE00286D
:1006E000F2D10121300000F0D7F80400ECE7C04659
:1006F0009C01002090010020F0B500281EDBFF26A1
:100700001A4B37009C4603238208C025C0B2034021
:10071000DB0089019F403140994092006244AD0066
:100720005459BC43214351511F23C02118401E3B43
:1007300083400E4A490053501360F0BDFF250C4A18
:100740002E00944603220F23C0B20240D20089013A
:100750009640294091400340083B9B089B0063441E
:10076000DC69B4432143D961DEE7C04600E100E023
:1007700000ED00E0F0B557464E464546E0B43C4C2F
:100780000300E27E0820002A04D01CBC9046994653
:10079000A246F0BD002B67D0186801328240A0202D
:1007A000A125C005ED004251A94603251A68AA46B5
:1007B000C132FF329200155000255A68AC46C13252
:1007C000FF32920015509F692A4A2B4D57515D7D8B
:1007D000A84647461D7D3D43284FD5515D681F689B
:1007E000A846274D57514746264D57511D7D012D8F
:1007F00019D19F683E00E0277F00B8464644B70005
:1008000066463E50DE68B5404E4685515646DD6828
:10081000C135FF35AD002E504E46D8689D689051C9
:10082000A220C00015501A696160226000290DD015
:10083000197F0023144A15481360154A1360C12319
:100840000C4A9B00D0500220FFF756FFA023042142
:10085000084ADB00D15000230122E3752376A375FB
:10086000E276A376002090E780220A4B920096E77A
:10087000BC01002000200040240500006C050000A1
:100880000C050000140500001C210040800002003F
:1008900044210040881C0000F0B5264A0400937DE6
:1008A0001120002B00D0F0BD01259175224823496D
:1008B000938294600B6005600B60938AE05C938A7E
:1008C0001F4C01339BB293821E4BE05050680028AE
:1008D00001D00020E7E7002726001D000130FF308F
:1008E000947D938AA34203D312E0938A834202D079
:1008F0000B68002BF9D0938A8342F2D00F60938A61
:100900009468E45C938A01339BB293827451E7E765
:100910008023918A5B0099420AD008490B68002B1A
:10092000FCD001210020084B196000239375BAE721
:100930000F20FAE7BC010020082000401C210040E5
:10094000002000401C0500000C200040024B987D58
:10095000431E9841C0B27047BC010020F0B5474625
:1009600080B43F4B5A68002A05D08126C2243D4DF1
:10097000B600A4002E51DC7D002C0CD01C7E002C77
:100980001CD0002A66D08121C123364A89009B00F1
:10099000D15011200FE0D975997ED8605C761C7615
:1009A000002925D0002A0DD08121C12300202D4A05
:1009B00089009B00D15004BC9046F0BD18611976A7
:1009C000002AF1D1284D294E2A60264A284C944607
:1009D000A322D2009046326821682868002910D1ED
:1009E000002826D1002AF6D000220320DA75E2E79B
:1009F0001E4A11601E4A116001211A4A11605A688C
:100A0000D0E7002AF0D1002815D1DA7D2060002A35
:100A100015D16246414652585A7ED97D9142DAD864
:100A20000022DA759B7E002B16D001220D4B1A6036
:100A3000C1E7002AD8D100220F20DA75BBE747466C
:100A400061465A7EC959DF68B9545A7E0132D2B222
:100A50005A76E1E71120AEE70122064B1A60AAE7B9
:100A6000BC0100200020004044210040242100401F
:100A70000821004004200040064A937E002B07D145
:100A800005490B6005490B60054901330B609376FE
:100A90007047C046BC0100202421004008210040CE
:100AA00000200040C12210B5604B92009A5884B0DB
:100AB00092054DD55E4A1168002949D00021116088
:100AC0008121C2228900920099505A4B9A7E002AB5
:100AD00002D10121584A1160022269460A70902110
:100AE0005248C9004258425069460392DA7D68462E
:100AF0000A72DA68196801920022DA751A765B6860
:100B000098474E4A1368002B10D04A4B988A997D1B
:100B100081424FD9002111609A8A9968895C9A8A2A
:100B2000013292B29A82464B404AD150454B1A68E4
:100B3000002A0BD000221A603E4B9A7E002A02D077
:100B400001213A4A1160DA7D002A42D104B010BD79
:100B5000C123364A9B00D3585B07D2D53A490B686C
:100B6000002BCED0334BD87D00283FD10860A32185
:100B7000C90052585A7ED97D9142C2D11A7E002AAC
:100B800041D19A7E002A02D101212B4A1160812095
:100B9000C222264980009200885000226846012126
:100BA000DA755A7E01700272DA68196801925B6820
:100BB0009847A6E7002010600029B7D06A46107059
:100BC00011729A689875196801925B68684698472F
:100BD000ACE7002268460121DA755A7E0170027284
:100BE000DA68196801925B689847AFE700200860EF
:100BF000A320C000597E1258D86842545A7E013250
:100C0000D2B25A76B6E7DA751A69D968DA60002284
:100C10006C46587E1A765A76013220720191227003
:100C2000196868465B6898476BE7C046002000403B
:100C300024210040BC010020042000401C21004071
:100C40001C050000442100400821004003210A48FF
:100C500002680A430260094802680A4302600849C0
:100C6000084A094B9B1A03DD043BC858D050FBDCF3
:100C7000FFF702FBFFF77EFA240500405405004011
:100C8000481D00000000002070000020FEE7FEE785
:100C9000FEE7FEE7FEE7FEE70FB40B4B13B51C685B
:100CA000002C05D0A369002B02D1200000F050F8E1
:100CB00005AB049AA1682000019300F05BF916BC13
:100CC00008BC04B01847C0466000002010B50249B7
:100CD00000F0B0F810BDC04679180000002310B530
:100CE000040003604360836081814366C2810361C5
:100CF00043618361190008225C30FFF7B3FA054BAA
:100D000024626362044BA362044BE362044B2363DB
:100D100010BDC046F1140000191500005115000067
:100D20007D15000070B568254B1E5D430E0029003F
:100D3000743100F0A1F8041E08D000212A000160DF
:100D400046600C30A0606832FFF78CFA200070BD5E
:100D5000836913B50400002B28D18364C364036541
:100D6000134B144A1B6882620193984201D10123FC
:100D70008361200000F020F86060200000F01CF883
:100D8000A060200000F018F80022E06004216068F4
:100D9000FFF7A4FF01220921A068FFF79FFF0222AD
:100DA0001221E068FFF79AFF0123A36113BDC0463B
:100DB000401C0000CD0C0000F8B51D4B06001D685E
:100DC000AB69002B02D12800FFF7C2FF4835AC68A1
:100DD0006B68013B05D40C22A75E002F10D068344D
:100DE000F7E72B68002B01D02D68F0E704213000D5
:100DF000FFF798FF28600028F6D10C23336016E037
:100E0000012320005B42E3810233A38167662760F0
:100E1000A760676027616761A7615C3008223900BD
:100E2000FFF720FA20006763A763A764E764F8BDB3
:100E3000401C0000F7B5040007000026019148346B
:100E4000002C16D06368A5680093009B013B0093BB
:100E50000DD4AB89012B08D90E22AB5E013304D02F
:100E600029003800019B984706436835EDE7246860
:100E7000E6E73000FEBD0000032370B5CD1C9D43A6
:100E8000083506000C2D01D20C2505E0002D03DAF3
:100E90000C230020336040E0A942F9D81F4B1C68A6
:100EA0001A002100002913D00B685B1B0DD40B2BFB
:100EB00002D90B60CC181EE08C4202D1636813602B
:100EC0001AE04B6863600C0016E00C004968E9E723
:100ED000134C2368002B03D1300000F0F7FA206098
:100EE0002900300000F0F2FA431CD1D00323C41CC7
:100EF0009C43A0420AD12560200007220B30231D0D
:100F00009043C31A09D05A42E25006E0211A300039
:100F100000F0DCFA431CEED1BAE770BDDC01002022
:100F2000D8010020936810B5013B9360002B05DACF
:100F30009469A34208DBCBB20A2B05D01368581C76
:100F400010601970C8B201E000F01EFB10BDF8B5CA
:100F500006000F001400D518AC4208D021783A00E2
:100F60003000FFF7DFFF0134431CF5D100E0002023
:100F7000F8BD0000F0B59FB006000F000292059387
:100F8000002804D08369002B01D1FFF7E1FE7F4BDD
:100F90009F4201D1776808E07D4B9F4201D1B7683D
:100FA00003E07C4B9F4200D1F768BB891B070AD541
:100FB0003B69002B07D0002306AD6B6120336B76B5
:100FC0001033AB763DE03900300000F049FB0028DB
:100FD000F1D001204042D6E0059A111D126805911A
:100FE000002A00DA7FE00992013423782E2B00D109
:100FF0008DE021780322684800F0D0FC002807D05B
:10100000654B2A68C01A4023834013432B60013488
:101010002178631C062261480293297600F0BEFC09
:10102000002800D19DE05E4B002B00D090E007220D
:10103000059B07339343083305936B69039A9B1809
:101040006B61029C2378002B04D1029BE31A04936A
:1010500012D003E0252BF8D00134F3E7049B029A69
:1010600039003000FFF773FF431C00D186E06A6946
:10107000049B944663446B612378002B7ED001224D
:10108000002352426A6002A95432521801342B6084
:10109000EB60AB601370AB6521780522414800F02E
:1010A0007DFC002808D03F4B2A68C01A01238340EA
:1010B00013432B600134EFE72B68DA0604D5532283
:1010C000202102A8121811701A0704D553222B21CF
:1010D00002A81218117022782A2A00D17CE7099BF5
:1010E00000200A2105E05242EA60022213432B60ED
:1010F0007AE72278303A092A04D84B4301349B1806
:101100000120F6E7002800D16FE709936DE76378C7
:101110002A2B0AD1059B02341A1D1B680592002B4D
:1011200001DA01235B42079363E700230A201A00D8
:1011300001346B6021783039092904D842430134E5
:1011400052180123F6E7002B00D152E7079250E72F
:1011500005AB00933A00144B2900300000E000BFBB
:1011600007E005AB00933A000F4B2900300000F078
:101170008BF80390039B013300D05EE7BB895B06CD
:1011800000D526E70B981FB0F0BDC046A81C000094
:10119000C81C0000E81C00000E1D0000121D00000D
:1011A00000000000081D00004F0F0000F7B51700F9
:1011B00001938A680B6900900C00934200DA1300D7
:1011C00022003B6043321278002A01D001333B6099
:1011D00023689B0602D53B6802333B6006252368E3
:1011E0001D401ED0230043331B785A1E93412268B2
:1011F00092061CD53020E1184331087021005A1C9A
:1012000045310978A2184332023311700FE02200F1
:101210000123193201990098089EB047431C0ED053
:101220000135E3683A689B1A9D42F0DBDAE7220059
:10123000019943320098089DA847431C02D1012020
:10124000404220E006232068E1683A680340002518
:10125000042B03D18D1AEB43DB171D40A3682269D1
:10126000934201DD9B1AED180027BD420AD02200EF
:1012700001231A3201990098089EB047431CDED022
:101280000137F2E70020FEBDF0B58BB006920A00F0
:1012900043320793059004920A7E0C00109B6E2A3D
:1012A00000D1ABE011D8632A22D009D8002A00D19E
:1012B000B5E0582A00D0C5E045310A70814A4FE0B8
:1012C000642A1DD0692A1BD0BCE0732A00D1AAE091
:1012D00009D86F2A29D0702A00D0B3E020220968EB
:1012E0000A43226037E0752A1FD0782A33D0A9E05C
:1012F0000E001A684236111D196013683370A4E09D
:1013000021681A68080606D4490604D5111D19601B
:101310000023D55E02E0111D19601568002D3BDA2F
:101320002D23049A6D42137036E021681A6808066E
:1013300006D4490604D51568111D1960ADB202E046
:10134000111D196015685F4B227E039308276F2AD1
:101350001DD00A271BE022007821453211705A4A1D
:1013600019680392081D226818600D68100602D4DF
:10137000500600D5ADB2D30702D520231A43226010
:101380001027002D03D1202322689A4322602300D6
:10139000002243331A7002E00A274A4B0393636822
:1013A000A360002B09DB0422216891432160002DFA
:1013B00005D1049E002B11D07BE0002D79D0049E36
:1013C0002800390000F0FAFB039B013E5B5C28001B
:1013D0003370390000F06CFB051EF1D1082F09D1E4
:1013E0002368DB0706D563682269934202DC302359
:1013F000013E3370049B9B1B23612BE009681A6834
:10140000080607D4490605D5111D19601368A28A7C
:101410001A8004E0111D1960136862691A600023C4
:10142000049E236116E01A68111D196016680021D8
:101430006268300000F0B2FA002801D0801B6060C2
:10144000636803E0260042363270012323610023E3
:10145000049A1370079B09AA00932100069B059824
:10146000FFF7A4FE431C02D10120404227E023697C
:10147000320006990598079DA847431CF4D02368BD
:1014800000259B070FD4099BE068984217DA1800E3
:1014900015E022000123193206990598079EB047EE
:1014A000431CE1D00135E368099A9B1A9D42F0DBA9
:1014B000E9E72600039B42361B7833708EE70BB0BA
:1014C000F0BDC046191D00002A1D0000002370B5A4
:1014D000064C05000800236000F096FB431C03D176
:1014E0002368002B00D02B6070BDC046E4010020B3
:1014F00070B50C000E25495F00F0A2FA002803DB4E
:10150000636D1B18636503E0A289024B1340A3813E
:1015100070BDC046FFEFFFFFF8B51F008B890500C7
:101520000C001600DB0505D50E23C95E0022022340
:1015300000F0CEF9A289054B28001340A3813200A8
:101540000E23E15E3B0000F077F8F8BDFFEFFFFFF0
:1015500070B50C000E25495F00F0BAF9A389421C52
:1015600003D1054A1340A38104E0802252011343B2
:10157000A381606570BDC046FFEFFFFF10B50E236D
:10158000C95E00F0E1F810BDF8B505000F001400C9
:10159000002804D08369002B01D1FFF7D9FB234B2E
:1015A0009C4201D16C6808E0214B9C4201D1AC689F
:1015B00003E0204B9C4200D1EC68A369A360A3899F
:1015C0001B070AD52369002B07D023682269FEB2C6
:1015D000981A636998420FDB08E02100280000F0A8
:1015E0003FF80028F1D0012040421DE021002800F2
:1015F00000F042F90028F6D1A3680130013BA36056
:1016000023685A1C22601F706369984205D0A38921
:101610003000DB0708D50A2E06D12100280000F093
:101620002BF90028DFD13000F8BDC046A81C00000F
:10163000C81C0000E81C000070B50500080011007F
:101640000022064C22601A00FEF74EFF431C03D115
:101650002368002B00D02B6070BDC046E401002041
:10166000354B70B51D6806000C00002D05D0AB6928
:10167000002B02D12800FFF76BFB304B9C4201D1BD
:101680006C6808E02E4B9C4201D1AC6803E02D4B06
:101690009C4200D1EC68A3899AB2110723D4D106E9
:1016A00007D409220120326037321343A38140421C
:1016B00040E0530713D5616B002908D02300443361
:1016C000994202D0300000F075F9002363632422B0
:1016D000A3899343A38100236360236923600822C5
:1016E000A3891343A3812369002B0BD1A023A289D3
:1016F0009B00134080229200934203D021003000CF
:1017000000F0FAF80123A289134005D00023A3605A
:1017100063695B42A36103E0910700D46369A3603E
:1017200000202369834205D1130603D540231A43C1
:10173000A281013870BDC04660000020A81C0000D6
:10174000C81C0000E81C0000002370B5064C050012
:101750000800236000F038FA431C03D12368002BF3
:1017600000D02B6070BDC046E4010020F7B58A8927
:1017700005000C0013075AD44B68002B02DC0B6CDD
:10178000002B19DDE76A002F16D000232E682B608E
:1017900080235B011A4001D0606D14E00123216AAF
:1017A0002800B847431C0ED12B68002B0BD01D2BF3
:1017B00001D0162B02D12E6000205AE04022A389CE
:1017C0001343A38155E0A3895B0706D56368C01A5C
:1017D000636B002B01D0236CC01A00230200216A26
:1017E0002800E76AB847A389421C06D129681D2949
:1017F0003AD8204ACA40D20736D500226260226910
:101800002260DB0405D5431C02D12B68002B00D1DC
:101810006065616B2E600029CED02300443399426D
:1018200002D0280000F0C6F80020606321E00F69B4
:10183000002FC1D00B680F60DB1B019300239207C0
:1018400000D14B69A36003E0019B3F181B1A019371
:10185000019B002BB0DD019B3A00216A2800A66A9B
:10186000B0470028F0DCA389402201201343A38164
:101870004042FEBD010040200B6970B505000C0020
:10188000002B01D100201CE0002804D08369002B2C
:1018900001D1FFF75DFA0B4B9C4201D16C6808E067
:1018A000094B9C4201D1AC6803E0084B9C4200D13B
:1018B000EC680C22A35E002BE4D021002800FFF787
:1018C00055FF70BDA81C0000C81C0000E81C0000EB
:1018D00070B50500080011000022064C22601A00B5
:1018E00000F08AF9431C03D12368002B00D02B6041
:1018F00070BDC046E4010020F0B58B8991B00600B0
:101900000C009B0726D40E23C95E002904DA80232D
:10191000A5891D4010D10CE001AA00F0A5F800280F
:10192000F5DBF023029D1B021D401A4BED186B42A4
:101930005D418027FF0001E000254027390030008D
:10194000FFF79AFA00280CD1A3899A051FD4022226
:101950001343A38123004733236023610123636181
:1019600015E080220C4BB362A38920601343A3814E
:1019700020616761002D0AD00E23E15E300000F087
:1019800085F8002803D00122A3891343A38111B055
:10199000F0BDC04600E0FFFFCD0C0000C9B28218C8
:1019A000904204D003788B4202D00130F8E7002047
:1019B0007047000030B500293ED004390B68002B79
:1019C00000DAC9181D4A13681400002B02D14B60BD
:1019D000116031E08B420DD90A688818834203D127
:1019E00018685B6882180A604B60216024E08A42B4
:1019F00003D813005A68002AF9D11D685C198C427B
:101A00000BD10968691858181960824214D11068FE
:101A10005268411819605A600EE08C4202D90C23BA
:101A2000036009E008680C18A24203D114685268E8
:101A3000201808604A60596030BDC046DC010020B3
:101A400070B50500080011000022064C22601A0043
:101A5000FEF758FD431C03D12368002B00D02B60F8
:101A600070BDC046E4010020002370B5064C05009F
:101A700008001100236000F0AFF8431C03D1236875
:101A8000002B00D02B6070BDE4010020002370B556
:101A9000064C05000800236000F0A6F8431C03D1A3
:101AA0002368002B00D02B6070BDC046E4010020ED
:101AB000002243088B4274D303098B425FD3030A8D
:101AC0008B4244D3030B8B4228D3030C8B420DD3A0
:101AD000FF22090212BA030C8B4202D3121209022E
:101AE00065D0030B8B4219D300E0090AC30B8B426C
:101AF00001D3CB03C01A5241830B8B4201D38B031A
:101B0000C01A5241430B8B4201D34B03C01A5241BE
:101B1000030B8B4201D30B03C01A5241C30A8B4201
:101B200001D3CB02C01A5241830A8B4201D38B02EC
:101B3000C01A5241430A8B4201D34B02C01A524190
:101B4000030A8B4201D30B02C01A5241CDD2C30902
:101B50008B4201D3CB01C01A524183098B4201D37E
:101B60008B01C01A524143098B4201D34B01C01A69
:101B7000524103098B4201D30B01C01A5241C308E1
:101B80008B4201D3CB00C01A524183088B4201D350
:101B90008B00C01A524143088B4201D34B00C01A3C
:101BA0005241411A00D20146524110467047FFE7A8
:101BB00001B5002000F006F802BDC0460029F7D0AC
:101BC00076E770477047C04658220120014B4042DB
:101BD0001A607047E401002058220120014B404266
:101BE0001A607047E40100205822024B00201A605E
:101BF0007047C046E401002058220120014B4042BA
:101C00001A607047E4010020044A1368002B03D0D7
:101C10001818106018007047014BF9E7E001002028
:101C2000E8010020F8B5C046F8BC08BC9E467047E5
:101C3000F8B5C046F8BC08BC9E467047430000009B
:101C4000000000200B09080A0100000000E0D70195
:101C50000A0D53746172743A200A0D00200A0D4572
:101C6000786974210A0D0000090000000B000000D3
:101C70000A00000008000000000000000000000052
:101C800000E0D70103000000090000000B00000085
:101C90000A00000008000000000000000000000032
:101CA00000E0D70103000000000000000000000079
:101CB0000000000000000000000000000000000024
:101CC0000000000000000000000000000000000014
:101CD0000000000000000000000000000000000004
:101CE00000000000000000000000000000000000F4
:101CF00000000000000000000000000000000000E4
:101D00000000000000000000232D302B2000686C34
:101D10004C0065666745464700303132333435360E
:101D20003738394142434445460030313233343547
:101D30003637383961626364656600000000000070
:081D400034E4FF7F0100000004
:101D480000000000A81C0000C81C0000E81C0000DF
:101D5800000000000000000000000000000000007B
:101D68003C1C000000000000000000000000000013
:101D7800000000000000000000000000000000005B
:101D8800000000000000000000000000000000004B
:101D9800000000000000000000000000000000003B
:101DA80000000020390100000D01000000000000C3
:0400000300000C4DA0
:00000001FF
